{
  "_format": "hh-sol-artifact-1",
  "contractName": "TokenWithFees",
  "sourceName": "contracts/TokenWithFees.sol",
  "abi": [
    {
      "inputs": [
        {
          "internalType": "string",
          "name": "name_",
          "type": "string"
        },
        {
          "internalType": "string",
          "name": "symbol_",
          "type": "string"
        },
        {
          "internalType": "uint256",
          "name": "totalSupply_",
          "type": "uint256"
        },
        {
          "internalType": "uint256",
          "name": "percentageFees_",
          "type": "uint256"
        },
        {
          "internalType": "uint8",
          "name": "minimumSignatures_",
          "type": "uint8"
        }
      ],
      "stateMutability": "nonpayable",
      "type": "constructor"
    },
    {
      "inputs": [
        {
          "internalType": "address",
          "name": "spender",
          "type": "address"
        },
        {
          "internalType": "uint256",
          "name": "allowance",
          "type": "uint256"
        },
        {
          "internalType": "uint256",
          "name": "needed",
          "type": "uint256"
        }
      ],
      "name": "ERC20InsufficientAllowance",
      "type": "error"
    },
    {
      "inputs": [
        {
          "internalType": "address",
          "name": "sender",
          "type": "address"
        },
        {
          "internalType": "uint256",
          "name": "balance",
          "type": "uint256"
        },
        {
          "internalType": "uint256",
          "name": "needed",
          "type": "uint256"
        }
      ],
      "name": "ERC20InsufficientBalance",
      "type": "error"
    },
    {
      "inputs": [
        {
          "internalType": "address",
          "name": "approver",
          "type": "address"
        }
      ],
      "name": "ERC20InvalidApprover",
      "type": "error"
    },
    {
      "inputs": [
        {
          "internalType": "address",
          "name": "receiver",
          "type": "address"
        }
      ],
      "name": "ERC20InvalidReceiver",
      "type": "error"
    },
    {
      "inputs": [
        {
          "internalType": "address",
          "name": "sender",
          "type": "address"
        }
      ],
      "name": "ERC20InvalidSender",
      "type": "error"
    },
    {
      "inputs": [
        {
          "internalType": "address",
          "name": "spender",
          "type": "address"
        }
      ],
      "name": "ERC20InvalidSpender",
      "type": "error"
    },
    {
      "inputs": [
        {
          "internalType": "uint256",
          "name": "proposalId",
          "type": "uint256"
        }
      ],
      "name": "InsufficientFees",
      "type": "error"
    },
    {
      "inputs": [
        {
          "internalType": "uint8",
          "name": "minimumSignatures",
          "type": "uint8"
        }
      ],
      "name": "MinimumSignaturesTooHigh",
      "type": "error"
    },
    {
      "inputs": [
        {
          "internalType": "uint8",
          "name": "minimumSignatures",
          "type": "uint8"
        }
      ],
      "name": "MinimumSignaturesTooLow",
      "type": "error"
    },
    {
      "inputs": [
        {
          "internalType": "address",
          "name": "sender",
          "type": "address"
        }
      ],
      "name": "OnlyAdmin",
      "type": "error"
    },
    {
      "inputs": [
        {
          "internalType": "address",
          "name": "sender",
          "type": "address"
        }
      ],
      "name": "OnlyOwner",
      "type": "error"
    },
    {
      "inputs": [
        {
          "internalType": "uint256",
          "name": "percentageFees",
          "type": "uint256"
        }
      ],
      "name": "PercentageFeesTooHigh",
      "type": "error"
    },
    {
      "inputs": [
        {
          "internalType": "uint256",
          "name": "proposalId",
          "type": "uint256"
        }
      ],
      "name": "ProposalAlreadyCancelled",
      "type": "error"
    },
    {
      "inputs": [
        {
          "internalType": "uint256",
          "name": "proposalId",
          "type": "uint256"
        }
      ],
      "name": "ProposalAlreadyExecuted",
      "type": "error"
    },
    {
      "inputs": [
        {
          "internalType": "uint256",
          "name": "proposalId",
          "type": "uint256"
        },
        {
          "internalType": "address",
          "name": "admin",
          "type": "address"
        }
      ],
      "name": "ProposalAlreadySigned",
      "type": "error"
    },
    {
      "inputs": [
        {
          "internalType": "uint256",
          "name": "proposalId",
          "type": "uint256"
        },
        {
          "internalType": "address",
          "name": "admin",
          "type": "address"
        }
      ],
      "name": "ProposalNotEnoughSignatures",
      "type": "error"
    },
    {
      "anonymous": false,
      "inputs": [
        {
          "indexed": true,
          "internalType": "address",
          "name": "owner",
          "type": "address"
        },
        {
          "indexed": true,
          "internalType": "address",
          "name": "spender",
          "type": "address"
        },
        {
          "indexed": false,
          "internalType": "uint256",
          "name": "value",
          "type": "uint256"
        }
      ],
      "name": "Approval",
      "type": "event"
    },
    {
      "anonymous": false,
      "inputs": [
        {
          "indexed": false,
          "internalType": "uint256",
          "name": "proposalId",
          "type": "uint256"
        },
        {
          "indexed": false,
          "internalType": "address",
          "name": "admin",
          "type": "address"
        }
      ],
      "name": "ProposalCancelled",
      "type": "event"
    },
    {
      "anonymous": false,
      "inputs": [
        {
          "indexed": false,
          "internalType": "uint256",
          "name": "proposalId",
          "type": "uint256"
        },
        {
          "indexed": false,
          "internalType": "address",
          "name": "to",
          "type": "address"
        },
        {
          "indexed": false,
          "internalType": "uint256",
          "name": "value",
          "type": "uint256"
        },
        {
          "indexed": false,
          "internalType": "uint8",
          "name": "minimumSignatures",
          "type": "uint8"
        }
      ],
      "name": "ProposalCreated",
      "type": "event"
    },
    {
      "anonymous": false,
      "inputs": [
        {
          "indexed": false,
          "internalType": "uint256",
          "name": "proposalId",
          "type": "uint256"
        },
        {
          "indexed": false,
          "internalType": "address",
          "name": "to",
          "type": "address"
        },
        {
          "indexed": false,
          "internalType": "uint256",
          "name": "value",
          "type": "uint256"
        }
      ],
      "name": "ProposalExecuted",
      "type": "event"
    },
    {
      "anonymous": false,
      "inputs": [
        {
          "indexed": false,
          "internalType": "uint256",
          "name": "proposalId",
          "type": "uint256"
        },
        {
          "indexed": false,
          "internalType": "address",
          "name": "admin",
          "type": "address"
        }
      ],
      "name": "ProposalSigned",
      "type": "event"
    },
    {
      "anonymous": false,
      "inputs": [
        {
          "indexed": true,
          "internalType": "address",
          "name": "from",
          "type": "address"
        },
        {
          "indexed": true,
          "internalType": "address",
          "name": "to",
          "type": "address"
        },
        {
          "indexed": false,
          "internalType": "uint256",
          "name": "value",
          "type": "uint256"
        }
      ],
      "name": "Transfer",
      "type": "event"
    },
    {
      "inputs": [
        {
          "internalType": "address",
          "name": "admin",
          "type": "address"
        }
      ],
      "name": "addAdmin",
      "outputs": [],
      "stateMutability": "nonpayable",
      "type": "function"
    },
    {
      "inputs": [
        {
          "internalType": "address",
          "name": "owner",
          "type": "address"
        },
        {
          "internalType": "address",
          "name": "spender",
          "type": "address"
        }
      ],
      "name": "allowance",
      "outputs": [
        {
          "internalType": "uint256",
          "name": "",
          "type": "uint256"
        }
      ],
      "stateMutability": "view",
      "type": "function"
    },
    {
      "inputs": [
        {
          "internalType": "address",
          "name": "spender",
          "type": "address"
        },
        {
          "internalType": "uint256",
          "name": "value",
          "type": "uint256"
        }
      ],
      "name": "approve",
      "outputs": [
        {
          "internalType": "bool",
          "name": "",
          "type": "bool"
        }
      ],
      "stateMutability": "nonpayable",
      "type": "function"
    },
    {
      "inputs": [
        {
          "internalType": "address",
          "name": "account",
          "type": "address"
        }
      ],
      "name": "balanceOf",
      "outputs": [
        {
          "internalType": "uint256",
          "name": "",
          "type": "uint256"
        }
      ],
      "stateMutability": "view",
      "type": "function"
    },
    {
      "inputs": [
        {
          "internalType": "uint256",
          "name": "proposalId",
          "type": "uint256"
        }
      ],
      "name": "cancelProposal",
      "outputs": [],
      "stateMutability": "nonpayable",
      "type": "function"
    },
    {
      "inputs": [],
      "name": "decimals",
      "outputs": [
        {
          "internalType": "uint8",
          "name": "",
          "type": "uint8"
        }
      ],
      "stateMutability": "view",
      "type": "function"
    },
    {
      "inputs": [
        {
          "internalType": "uint256",
          "name": "proposalId",
          "type": "uint256"
        }
      ],
      "name": "executeProposal",
      "outputs": [],
      "stateMutability": "nonpayable",
      "type": "function"
    },
    {
      "inputs": [],
      "name": "getCollectedFees",
      "outputs": [
        {
          "internalType": "uint256",
          "name": "",
          "type": "uint256"
        }
      ],
      "stateMutability": "view",
      "type": "function"
    },
    {
      "inputs": [],
      "name": "getMinimumSignatures",
      "outputs": [
        {
          "internalType": "uint8",
          "name": "",
          "type": "uint8"
        }
      ],
      "stateMutability": "view",
      "type": "function"
    },
    {
      "inputs": [
        {
          "internalType": "address",
          "name": "addr",
          "type": "address"
        }
      ],
      "name": "isAdmin",
      "outputs": [
        {
          "internalType": "bool",
          "name": "",
          "type": "bool"
        }
      ],
      "stateMutability": "view",
      "type": "function"
    },
    {
      "inputs": [
        {
          "internalType": "address",
          "name": "addr",
          "type": "address"
        }
      ],
      "name": "isOwner",
      "outputs": [
        {
          "internalType": "bool",
          "name": "",
          "type": "bool"
        }
      ],
      "stateMutability": "view",
      "type": "function"
    },
    {
      "inputs": [],
      "name": "name",
      "outputs": [
        {
          "internalType": "string",
          "name": "",
          "type": "string"
        }
      ],
      "stateMutability": "view",
      "type": "function"
    },
    {
      "inputs": [],
      "name": "percentageFees",
      "outputs": [
        {
          "internalType": "uint256",
          "name": "",
          "type": "uint256"
        }
      ],
      "stateMutability": "view",
      "type": "function"
    },
    {
      "inputs": [
        {
          "internalType": "address",
          "name": "to",
          "type": "address"
        },
        {
          "internalType": "uint256",
          "name": "value",
          "type": "uint256"
        },
        {
          "internalType": "uint8",
          "name": "minimumSignatures",
          "type": "uint8"
        }
      ],
      "name": "proposeCollection",
      "outputs": [],
      "stateMutability": "nonpayable",
      "type": "function"
    },
    {
      "inputs": [
        {
          "internalType": "address",
          "name": "admin",
          "type": "address"
        }
      ],
      "name": "removeAdmin",
      "outputs": [],
      "stateMutability": "nonpayable",
      "type": "function"
    },
    {
      "inputs": [
        {
          "internalType": "uint8",
          "name": "minimumSignatures",
          "type": "uint8"
        }
      ],
      "name": "setMinimumSignatures",
      "outputs": [],
      "stateMutability": "nonpayable",
      "type": "function"
    },
    {
      "inputs": [
        {
          "internalType": "uint256",
          "name": "proposalId",
          "type": "uint256"
        }
      ],
      "name": "signProposal",
      "outputs": [],
      "stateMutability": "nonpayable",
      "type": "function"
    },
    {
      "inputs": [],
      "name": "symbol",
      "outputs": [
        {
          "internalType": "string",
          "name": "",
          "type": "string"
        }
      ],
      "stateMutability": "view",
      "type": "function"
    },
    {
      "inputs": [],
      "name": "totalSupply",
      "outputs": [
        {
          "internalType": "uint256",
          "name": "",
          "type": "uint256"
        }
      ],
      "stateMutability": "view",
      "type": "function"
    },
    {
      "inputs": [
        {
          "internalType": "address",
          "name": "to",
          "type": "address"
        },
        {
          "internalType": "uint256",
          "name": "value",
          "type": "uint256"
        }
      ],
      "name": "transfer",
      "outputs": [
        {
          "internalType": "bool",
          "name": "",
          "type": "bool"
        }
      ],
      "stateMutability": "nonpayable",
      "type": "function"
    },
    {
      "inputs": [
        {
          "internalType": "address",
          "name": "from",
          "type": "address"
        },
        {
          "internalType": "address",
          "name": "to",
          "type": "address"
        },
        {
          "internalType": "uint256",
          "name": "value",
          "type": "uint256"
        }
      ],
      "name": "transferFrom",
      "outputs": [
        {
          "internalType": "bool",
          "name": "",
          "type": "bool"
        }
      ],
      "stateMutability": "nonpayable",
      "type": "function"
    },
    {
      "inputs": [
        {
          "internalType": "uint256",
          "name": "percentageFees_",
          "type": "uint256"
        }
      ],
      "name": "updatePercentageFees",
      "outputs": [],
      "stateMutability": "nonpayable",
      "type": "function"
    }
  ],
  "bytecode": "0x608060405234801561001057600080fd5b5060405161322c38038061322c83398181016040528101906100329190610429565b8484816003908161004391906106f3565b50806004908161005391906106f3565b50505060018160ff16101561009f57806040517f0498a42500000000000000000000000000000000000000000000000000000000815260040161009691906107d4565b60405180910390fd5b8160078190555080600960006101000a81548160ff021916908360ff16021790555033600560006101000a81548173ffffffffffffffffffffffffffffffffffffffff021916908373ffffffffffffffffffffffffffffffffffffffff1602179055506001600660003373ffffffffffffffffffffffffffffffffffffffff1673ffffffffffffffffffffffffffffffffffffffff16815260200190815260200160002060006101000a81548160ff02191690831515021790555061016861023c60201b60201c565b600a6101749190610951565b8361017f919061099c565b6002819055506002546000803373ffffffffffffffffffffffffffffffffffffffff1673ffffffffffffffffffffffffffffffffffffffff168152602001908152602001600020819055503373ffffffffffffffffffffffffffffffffffffffff16600073ffffffffffffffffffffffffffffffffffffffff167fddf252ad1be2c89b69c2b068fc378daa952ba7f163c4a11628f55a4df523b3ef60025460405161022a91906109ed565b60405180910390a35050505050610a08565b60006012905090565b6000604051905090565b600080fd5b600080fd5b600080fd5b600080fd5b6000601f19601f8301169050919050565b7f4e487b7100000000000000000000000000000000000000000000000000000000600052604160045260246000fd5b6102ac82610263565b810181811067ffffffffffffffff821117156102cb576102ca610274565b5b80604052505050565b60006102de610245565b90506102ea82826102a3565b919050565b600067ffffffffffffffff82111561030a57610309610274565b5b61031382610263565b9050602081019050919050565b60005b8381101561033e578082015181840152602081019050610323565b60008484015250505050565b600061035d610358846102ef565b6102d4565b9050828152602081018484840111156103795761037861025e565b5b610384848285610320565b509392505050565b600082601f8301126103a1576103a0610259565b5b81516103b184826020860161034a565b91505092915050565b6000819050919050565b6103cd816103ba565b81146103d857600080fd5b50565b6000815190506103ea816103c4565b92915050565b600060ff82169050919050565b610406816103f0565b811461041157600080fd5b50565b600081519050610423816103fd565b92915050565b600080600080600060a086880312156104455761044461024f565b5b600086015167ffffffffffffffff81111561046357610462610254565b5b61046f8882890161038c565b955050602086015167ffffffffffffffff8111156104905761048f610254565b5b61049c8882890161038c565b94505060406104ad888289016103db565b93505060606104be888289016103db565b92505060806104cf88828901610414565b9150509295509295909350565b600081519050919050565b7f4e487b7100000000000000000000000000000000000000000000000000000000600052602260045260246000fd5b6000600282049050600182168061052e57607f821691505b602082108103610541576105406104e7565b5b50919050565b60008190508160005260206000209050919050565b60006020601f8301049050919050565b600082821b905092915050565b6000600883026105a97fffffffffffffffffffffffffffffffffffffffffffffffffffffffffffffffff8261056c565b6105b3868361056c565b95508019841693508086168417925050509392505050565b6000819050919050565b60006105f06105eb6105e6846103ba565b6105cb565b6103ba565b9050919050565b6000819050919050565b61060a836105d5565b61061e610616826105f7565b848454610579565b825550505050565b600090565b610633610626565b61063e818484610601565b505050565b5b818110156106625761065760008261062b565b600181019050610644565b5050565b601f8211156106a75761067881610547565b6106818461055c565b81016020851015610690578190505b6106a461069c8561055c565b830182610643565b50505b505050565b600082821c905092915050565b60006106ca600019846008026106ac565b1980831691505092915050565b60006106e383836106b9565b9150826002028217905092915050565b6106fc826104dc565b67ffffffffffffffff81111561071557610714610274565b5b61071f8254610516565b61072a828285610666565b600060209050601f83116001811461075d576000841561074b578287015190505b61075585826106d7565b8655506107bd565b601f19841661076b86610547565b60005b828110156107935784890151825560018201915060208501945060208101905061076e565b868310156107b057848901516107ac601f8916826106b9565b8355505b6001600288020188555050505b505050505050565b6107ce816103f0565b82525050565b60006020820190506107e960008301846107c5565b92915050565b7f4e487b7100000000000000000000000000000000000000000000000000000000600052601160045260246000fd5b60008160011c9050919050565b6000808291508390505b600185111561087557808604811115610851576108506107ef565b5b60018516156108605780820291505b808102905061086e8561081e565b9450610835565b94509492505050565b60008261088e576001905061094a565b8161089c576000905061094a565b81600181146108b257600281146108bc576108eb565b600191505061094a565b60ff8411156108ce576108cd6107ef565b5b8360020a9150848211156108e5576108e46107ef565b5b5061094a565b5060208310610133831016604e8410600b84101617156109205782820a90508381111561091b5761091a6107ef565b5b61094a565b61092d848484600161082b565b92509050818404811115610944576109436107ef565b5b81810290505b9392505050565b600061095c826103ba565b9150610967836103f0565b92506109947fffffffffffffffffffffffffffffffffffffffffffffffffffffffffffffffff848461087e565b905092915050565b60006109a7826103ba565b91506109b2836103ba565b92508282026109c0816103ba565b915082820484148315176109d7576109d66107ef565b5b5092915050565b6109e7816103ba565b82525050565b6000602082019050610a0260008301846109de565b92915050565b61281580610a176000396000f3fe608060405234801561001057600080fd5b50600436106101425760003560e01c806370480275116100b8578063ab2730161161007c578063ab27301614610389578063b653a918146103a5578063d54a8d18146103c3578063dd62ed3e146103e1578063e0a8f6f514610411578063e12aa0ce1461042d57610142565b806370480275146102d357806370a08231146102ef5780638c74890d1461031f57806395d89b411461033b578063a9059cbb1461035957610142565b806318160ddd1161010a57806318160ddd146101eb57806323b872dd1461020957806324d7806c146102395780632f54bf6e14610269578063313ce567146102995780634d473989146102b757610142565b806306fdde0314610147578063095ea7b3146101655780630d61b5191461019557806316a5265d146101b15780631785f53c146101cf575b600080fd5b61014f610449565b60405161015c91906121b5565b60405180910390f35b61017f600480360381019061017a9190612270565b6104db565b60405161018c91906122cb565b60405180910390f35b6101af60048036038101906101aa91906122e6565b6104f7565b005b6101b9610a5e565b6040516101c69190612322565b60405180910390f35b6101e960048036038101906101e4919061233d565b610a64565b005b6101f3610b51565b6040516102009190612322565b60405180910390f35b610223600480360381019061021e919061236a565b610b5b565b60405161023091906122cb565b60405180910390f35b610253600480360381019061024e919061233d565b610b7b565b60405161026091906122cb565b60405180910390f35b610283600480360381019061027e919061233d565b610bd1565b60405161029091906122cb565b60405180910390f35b6102a1610c2b565b6040516102ae91906123d9565b60405180910390f35b6102d160048036038101906102cc91906122e6565b610c34565b005b6102ed60048036038101906102e8919061233d565b610d16565b005b6103096004803603810190610304919061233d565b610e03565b6040516103169190612322565b60405180910390f35b61033960048036038101906103349190612420565b610e4b565b005b61034361113a565b60405161035091906121b5565b60405180910390f35b610373600480360381019061036e9190612270565b6111cc565b60405161038091906122cb565b60405180910390f35b6103a3600480360381019061039e91906122e6565b6111ea565b005b6103ad61151f565b6040516103ba91906123d9565b60405180910390f35b6103cb611536565b6040516103d89190612322565b60405180910390f35b6103fb60048036038101906103f69190612473565b611540565b6040516104089190612322565b60405180910390f35b61042b600480360381019061042691906122e6565b6115c7565b005b610447600480360381019061044291906124b3565b611820565b005b6060600380546104589061250f565b80601f01602080910402602001604051908101604052809291908181526020018280546104849061250f565b80156104d15780601f106104a6576101008083540402835291602001916104d1565b820191906000526020600020905b8154815290600101906020018083116104b457829003601f168201915b5050505050905090565b6000803390506104ec818585611919565b600191505092915050565b600660003373ffffffffffffffffffffffffffffffffffffffff1673ffffffffffffffffffffffffffffffffffffffff16815260200190815260200160002060009054906101000a900460ff1661058557336040517f02e286cf00000000000000000000000000000000000000000000000000000000815260040161057c919061254f565b60405180910390fd5b600b81815481106105995761059861256a565b5b906000526020600020906004020160030160019054906101000a900460ff16156105fa57806040517f4eec80e60000000000000000000000000000000000000000000000000000000081526004016105f19190612322565b60405180910390fd5b600073ffffffffffffffffffffffffffffffffffffffff16600b82815481106106265761062561256a565b5b906000526020600020906004020160030160029054906101000a900473ffffffffffffffffffffffffffffffffffffffff1673ffffffffffffffffffffffffffffffffffffffff16146106b057806040517fb24d2c3b0000000000000000000000000000000000000000000000000000000081526004016106a79190612322565b60405180910390fd5b600b81815481106106c4576106c361256a565b5b906000526020600020906004020160030160009054906101000a900460ff1660ff16600b82815481106106fa576106f961256a565b5b90600052602060002090600402016000015410156107515780336040517fff6553d9000000000000000000000000000000000000000000000000000000008152600401610748929190612599565b60405180910390fd5b600b81815481106107655761076461256a565b5b90600052602060002090600402016002015460085410156107bd57806040517fe5ac390e0000000000000000000000000000000000000000000000000000000081526004016107b49190612322565b60405180910390fd5b6001600b82815481106107d3576107d261256a565b5b906000526020600020906004020160030160016101000a81548160ff021916908315150217905550600b818154811061080f5761080e61256a565b5b906000526020600020906004020160020154600860008282540392505081905550600b81815481106108445761084361256a565b5b906000526020600020906004020160020154600080600b848154811061086d5761086c61256a565b5b906000526020600020906004020160010160009054906101000a900473ffffffffffffffffffffffffffffffffffffffff1673ffffffffffffffffffffffffffffffffffffffff1673ffffffffffffffffffffffffffffffffffffffff16815260200190815260200160002060008282540192505081905550600b81815481106108fa576108f961256a565b5b906000526020600020906004020160010160009054906101000a900473ffffffffffffffffffffffffffffffffffffffff1673ffffffffffffffffffffffffffffffffffffffff16600073ffffffffffffffffffffffffffffffffffffffff167fddf252ad1be2c89b69c2b068fc378daa952ba7f163c4a11628f55a4df523b3ef600b848154811061098f5761098e61256a565b5b9060005260206000209060040201600201546040516109ae9190612322565b60405180910390a37f3b7c90df35b419337cff0919fe91849006607bb66c4373623f06f9d48c1ebb9881600b83815481106109ec576109eb61256a565b5b906000526020600020906004020160010160009054906101000a900473ffffffffffffffffffffffffffffffffffffffff16600b8481548110610a3257610a3161256a565b5b906000526020600020906004020160020154604051610a53939291906125c2565b60405180910390a150565b60075481565b600560009054906101000a900473ffffffffffffffffffffffffffffffffffffffff1673ffffffffffffffffffffffffffffffffffffffff163373ffffffffffffffffffffffffffffffffffffffff1614610af657336040517f0a86c02a000000000000000000000000000000000000000000000000000000008152600401610aed919061254f565b60405180910390fd5b6000600660008373ffffffffffffffffffffffffffffffffffffffff1673ffffffffffffffffffffffffffffffffffffffff16815260200190815260200160002060006101000a81548160ff02191690831515021790555050565b6000600254905090565b6000610b67338361192b565b610b72848484611b53565b90509392505050565b6000600660008373ffffffffffffffffffffffffffffffffffffffff1673ffffffffffffffffffffffffffffffffffffffff16815260200190815260200160002060009054906101000a900460ff169050919050565b6000600560009054906101000a900473ffffffffffffffffffffffffffffffffffffffff1673ffffffffffffffffffffffffffffffffffffffff168273ffffffffffffffffffffffffffffffffffffffff16149050919050565b60006012905090565b600560009054906101000a900473ffffffffffffffffffffffffffffffffffffffff1673ffffffffffffffffffffffffffffffffffffffff163373ffffffffffffffffffffffffffffffffffffffff1614610cc657336040517f0a86c02a000000000000000000000000000000000000000000000000000000008152600401610cbd919061254f565b60405180910390fd5b6064811115610d0c57806040517f9b698c55000000000000000000000000000000000000000000000000000000008152600401610d039190612322565b60405180910390fd5b8060078190555050565b600560009054906101000a900473ffffffffffffffffffffffffffffffffffffffff1673ffffffffffffffffffffffffffffffffffffffff163373ffffffffffffffffffffffffffffffffffffffff1614610da857336040517f0a86c02a000000000000000000000000000000000000000000000000000000008152600401610d9f919061254f565b60405180910390fd5b6001600660008373ffffffffffffffffffffffffffffffffffffffff1673ffffffffffffffffffffffffffffffffffffffff16815260200190815260200160002060006101000a81548160ff02191690831515021790555050565b60008060008373ffffffffffffffffffffffffffffffffffffffff1673ffffffffffffffffffffffffffffffffffffffff168152602001908152602001600020549050919050565b600660003373ffffffffffffffffffffffffffffffffffffffff1673ffffffffffffffffffffffffffffffffffffffff16815260200190815260200160002060009054906101000a900460ff16610ed957336040517f02e286cf000000000000000000000000000000000000000000000000000000008152600401610ed0919061254f565b60405180910390fd5b60018160ff161015610f2257806040517f0498a425000000000000000000000000000000000000000000000000000000008152600401610f1991906123d9565b60405180910390fd5b600960009054906101000a900460ff1660ff168160ff161115610f7c57806040517fdd2173b7000000000000000000000000000000000000000000000000000000008152600401610f7391906123d9565b60405180910390fd5b6000600b805490509050600b6040518060c00160405280600081526020018673ffffffffffffffffffffffffffffffffffffffff1681526020018581526020018460ff168152602001600015158152602001600073ffffffffffffffffffffffffffffffffffffffff1681525090806001815401808255809150506001900390600052602060002090600402016000909190919091506000820151816000015560208201518160010160006101000a81548173ffffffffffffffffffffffffffffffffffffffff021916908373ffffffffffffffffffffffffffffffffffffffff1602179055506040820151816002015560608201518160030160006101000a81548160ff021916908360ff16021790555060808201518160030160016101000a81548160ff02191690831515021790555060a08201518160030160026101000a81548173ffffffffffffffffffffffffffffffffffffffff021916908373ffffffffffffffffffffffffffffffffffffffff16021790555050507ff16b365c40425cb2ff270f6ebe353a31cb7a9b8b2b4f922e3a91fbede11a6e6d8185858560405161112c94939291906125f9565b60405180910390a150505050565b6060600480546111499061250f565b80601f01602080910402602001604051908101604052809291908181526020018280546111759061250f565b80156111c25780601f10611197576101008083540402835291602001916111c2565b820191906000526020600020905b8154815290600101906020018083116111a557829003601f168201915b5050505050905090565b60006111d8338361192b565b6111e28383611b7b565b905092915050565b600660003373ffffffffffffffffffffffffffffffffffffffff1673ffffffffffffffffffffffffffffffffffffffff16815260200190815260200160002060009054906101000a900460ff1661127857336040517f02e286cf00000000000000000000000000000000000000000000000000000000815260040161126f919061254f565b60405180910390fd5b600b818154811061128c5761128b61256a565b5b906000526020600020906004020160030160019054906101000a900460ff16156112ed57806040517f4eec80e60000000000000000000000000000000000000000000000000000000081526004016112e49190612322565b60405180910390fd5b600073ffffffffffffffffffffffffffffffffffffffff16600b82815481106113195761131861256a565b5b906000526020600020906004020160030160029054906101000a900473ffffffffffffffffffffffffffffffffffffffff1673ffffffffffffffffffffffffffffffffffffffff16146113a357806040517fb24d2c3b00000000000000000000000000000000000000000000000000000000815260040161139a9190612322565b60405180910390fd5b600a600082815260200190815260200160002060003373ffffffffffffffffffffffffffffffffffffffff1673ffffffffffffffffffffffffffffffffffffffff16815260200190815260200160002060009054906101000a900460ff16156114455780336040517f1882097a00000000000000000000000000000000000000000000000000000000815260040161143c929190612599565b60405180910390fd5b6001600a600083815260200190815260200160002060003373ffffffffffffffffffffffffffffffffffffffff1673ffffffffffffffffffffffffffffffffffffffff16815260200190815260200160002060006101000a81548160ff021916908315150217905550600b81815481106114c2576114c161256a565b5b9060005260206000209060040201600001600081548092919060010191905055507fc47a1536197401b36a117101725a5dfa1495e2643f664e4a10289c7bba9444478133604051611514929190612599565b60405180910390a150565b6000600960009054906101000a900460ff16905090565b6000600854905090565b6000600160008473ffffffffffffffffffffffffffffffffffffffff1673ffffffffffffffffffffffffffffffffffffffff16815260200190815260200160002060008373ffffffffffffffffffffffffffffffffffffffff1673ffffffffffffffffffffffffffffffffffffffff16815260200190815260200160002054905092915050565b600660003373ffffffffffffffffffffffffffffffffffffffff1673ffffffffffffffffffffffffffffffffffffffff16815260200190815260200160002060009054906101000a900460ff1661165557336040517f02e286cf00000000000000000000000000000000000000000000000000000000815260040161164c919061254f565b60405180910390fd5b600b81815481106116695761166861256a565b5b906000526020600020906004020160030160019054906101000a900460ff16156116ca57806040517f4eec80e60000000000000000000000000000000000000000000000000000000081526004016116c19190612322565b60405180910390fd5b600073ffffffffffffffffffffffffffffffffffffffff16600b82815481106116f6576116f561256a565b5b906000526020600020906004020160030160029054906101000a900473ffffffffffffffffffffffffffffffffffffffff1673ffffffffffffffffffffffffffffffffffffffff161461178057806040517fb24d2c3b0000000000000000000000000000000000000000000000000000000081526004016117779190612322565b60405180910390fd5b33600b82815481106117955761179461256a565b5b906000526020600020906004020160030160026101000a81548173ffffffffffffffffffffffffffffffffffffffff021916908373ffffffffffffffffffffffffffffffffffffffff1602179055507f74c34a008ce735d9fcf0bd03a9b238d212ad4c441c020661f4ffbb6442645b858133604051611815929190612599565b60405180910390a150565b600560009054906101000a900473ffffffffffffffffffffffffffffffffffffffff1673ffffffffffffffffffffffffffffffffffffffff163373ffffffffffffffffffffffffffffffffffffffff16146118b257336040517f0a86c02a0000000000000000000000000000000000000000000000000000000081526004016118a9919061254f565b60405180910390fd5b60018160ff1610156118fb57806040517f0498a4250000000000000000000000000000000000000000000000000000000081526004016118f291906123d9565b60405180910390fd5b80600960006101000a81548160ff021916908360ff16021790555050565b6119268383836001611b97565b505050565b600073ffffffffffffffffffffffffffffffffffffffff168273ffffffffffffffffffffffffffffffffffffffff16141580156119685750600081115b801561197657506000600754115b15611b4f5760006007547fffffffffffffffffffffffffffffffffffffffffffffffffffffffffffffffff6119ab919061269c565b821115611a0f5760006064836119c1919061269c565b905060006064846119d291906126cd565b90506064600754826119e491906126fe565b6119ee919061269c565b600754836119fc91906126fe565b611a069190612740565b92505050611a2c565b606460075483611a1f91906126fe565b611a29919061269c565b90505b6000808473ffffffffffffffffffffffffffffffffffffffff1673ffffffffffffffffffffffffffffffffffffffff16815260200190815260200160002054811115611af157826000808573ffffffffffffffffffffffffffffffffffffffff1673ffffffffffffffffffffffffffffffffffffffff16815260200190815260200160002054826040517fe450d38c000000000000000000000000000000000000000000000000000000008152600401611ae893929190612774565b60405180910390fd5b806000808573ffffffffffffffffffffffffffffffffffffffff1673ffffffffffffffffffffffffffffffffffffffff1681526020019081526020016000206000828254039250508190555080600860008282540192505081905550505b5050565b600080339050611b64858285611d6e565b611b6f858585611e03565b60019150509392505050565b600080339050611b8c818585611e03565b600191505092915050565b600073ffffffffffffffffffffffffffffffffffffffff168473ffffffffffffffffffffffffffffffffffffffff1603611c095760006040517fe602df05000000000000000000000000000000000000000000000000000000008152600401611c00919061254f565b60405180910390fd5b600073ffffffffffffffffffffffffffffffffffffffff168373ffffffffffffffffffffffffffffffffffffffff1603611c7b5760006040517f94280d62000000000000000000000000000000000000000000000000000000008152600401611c72919061254f565b60405180910390fd5b81600160008673ffffffffffffffffffffffffffffffffffffffff1673ffffffffffffffffffffffffffffffffffffffff16815260200190815260200160002060008573ffffffffffffffffffffffffffffffffffffffff1673ffffffffffffffffffffffffffffffffffffffff168152602001908152602001600020819055508015611d68578273ffffffffffffffffffffffffffffffffffffffff168473ffffffffffffffffffffffffffffffffffffffff167f8c5be1e5ebec7d5bd14f71427d1e84f3dd0314c0f7b2291e5b200ac8c7c3b92584604051611d5f9190612322565b60405180910390a35b50505050565b6000611d7a8484611540565b90507fffffffffffffffffffffffffffffffffffffffffffffffffffffffffffffffff811015611dfd5781811015611ded578281836040517ffb8f41b2000000000000000000000000000000000000000000000000000000008152600401611de493929190612774565b60405180910390fd5b611dfc84848484036000611b97565b5b50505050565b600073ffffffffffffffffffffffffffffffffffffffff168373ffffffffffffffffffffffffffffffffffffffff1603611e755760006040517f96c6fd1e000000000000000000000000000000000000000000000000000000008152600401611e6c919061254f565b60405180910390fd5b600073ffffffffffffffffffffffffffffffffffffffff168273ffffffffffffffffffffffffffffffffffffffff1603611ee75760006040517fec442f05000000000000000000000000000000000000000000000000000000008152600401611ede919061254f565b60405180910390fd5b611ef2838383611ef7565b505050565b600073ffffffffffffffffffffffffffffffffffffffff168373ffffffffffffffffffffffffffffffffffffffff1603611f49578060026000828254611f3d9190612740565b9250508190555061201c565b60008060008573ffffffffffffffffffffffffffffffffffffffff1673ffffffffffffffffffffffffffffffffffffffff16815260200190815260200160002054905081811015611fd5578381836040517fe450d38c000000000000000000000000000000000000000000000000000000008152600401611fcc93929190612774565b60405180910390fd5b8181036000808673ffffffffffffffffffffffffffffffffffffffff1673ffffffffffffffffffffffffffffffffffffffff16815260200190815260200160002081905550505b600073ffffffffffffffffffffffffffffffffffffffff168273ffffffffffffffffffffffffffffffffffffffff160361206e57806002600082825461206291906127ab565b925050819055506120bb565b806000808473ffffffffffffffffffffffffffffffffffffffff1673ffffffffffffffffffffffffffffffffffffffff168152602001908152602001600020600082825401925050819055505b8173ffffffffffffffffffffffffffffffffffffffff168373ffffffffffffffffffffffffffffffffffffffff167fddf252ad1be2c89b69c2b068fc378daa952ba7f163c4a11628f55a4df523b3ef836040516121189190612322565b60405180910390a3505050565b600081519050919050565b600082825260208201905092915050565b60005b8381101561215f578082015181840152602081019050612144565b60008484015250505050565b6000601f19601f8301169050919050565b600061218782612125565b6121918185612130565b93506121a1818560208601612141565b6121aa8161216b565b840191505092915050565b600060208201905081810360008301526121cf818461217c565b905092915050565b600080fd5b600073ffffffffffffffffffffffffffffffffffffffff82169050919050565b6000612207826121dc565b9050919050565b612217816121fc565b811461222257600080fd5b50565b6000813590506122348161220e565b92915050565b6000819050919050565b61224d8161223a565b811461225857600080fd5b50565b60008135905061226a81612244565b92915050565b60008060408385031215612287576122866121d7565b5b600061229585828601612225565b92505060206122a68582860161225b565b9150509250929050565b60008115159050919050565b6122c5816122b0565b82525050565b60006020820190506122e060008301846122bc565b92915050565b6000602082840312156122fc576122fb6121d7565b5b600061230a8482850161225b565b91505092915050565b61231c8161223a565b82525050565b60006020820190506123376000830184612313565b92915050565b600060208284031215612353576123526121d7565b5b600061236184828501612225565b91505092915050565b600080600060608486031215612383576123826121d7565b5b600061239186828701612225565b93505060206123a286828701612225565b92505060406123b38682870161225b565b9150509250925092565b600060ff82169050919050565b6123d3816123bd565b82525050565b60006020820190506123ee60008301846123ca565b92915050565b6123fd816123bd565b811461240857600080fd5b50565b60008135905061241a816123f4565b92915050565b600080600060608486031215612439576124386121d7565b5b600061244786828701612225565b93505060206124588682870161225b565b92505060406124698682870161240b565b9150509250925092565b6000806040838503121561248a576124896121d7565b5b600061249885828601612225565b92505060206124a985828601612225565b9150509250929050565b6000602082840312156124c9576124c86121d7565b5b60006124d78482850161240b565b91505092915050565b7f4e487b7100000000000000000000000000000000000000000000000000000000600052602260045260246000fd5b6000600282049050600182168061252757607f821691505b60208210810361253a576125396124e0565b5b50919050565b612549816121fc565b82525050565b60006020820190506125646000830184612540565b92915050565b7f4e487b7100000000000000000000000000000000000000000000000000000000600052603260045260246000fd5b60006040820190506125ae6000830185612313565b6125bb6020830184612540565b9392505050565b60006060820190506125d76000830186612313565b6125e46020830185612540565b6125f16040830184612313565b949350505050565b600060808201905061260e6000830187612313565b61261b6020830186612540565b6126286040830185612313565b61263560608301846123ca565b95945050505050565b7f4e487b7100000000000000000000000000000000000000000000000000000000600052601260045260246000fd5b7f4e487b7100000000000000000000000000000000000000000000000000000000600052601160045260246000fd5b60006126a78261223a565b91506126b28361223a565b9250826126c2576126c161263e565b5b828204905092915050565b60006126d88261223a565b91506126e38361223a565b9250826126f3576126f261263e565b5b828206905092915050565b60006127098261223a565b91506127148361223a565b92508282026127228161223a565b915082820484148315176127395761273861266d565b5b5092915050565b600061274b8261223a565b91506127568361223a565b925082820190508082111561276e5761276d61266d565b5b92915050565b60006060820190506127896000830186612540565b6127966020830185612313565b6127a36040830184612313565b949350505050565b60006127b68261223a565b91506127c18361223a565b92508282039050818111156127d9576127d861266d565b5b9291505056fea2646970667358221220dbad203e7ab81ac06d5cd035ba3a19738a4c25ce2e0c85db85349d6cedfc963264736f6c634300081c0033",
  "linkReferences": {},
  "deployedLinkReferences": {}
}